:030000000208C92A
:0C08C900787FE4F6D8FD75810702080076
:10080000E4F5A07F381208AD12089E7F011208ADF2
:1008100012089E7F0C1208AD12089E7F811208AD4F
:1008200012089E7F4D1208BB12089E7F641208BBFF
:1008300012089E7F201208BB12089E7F411208BB3F
:1008400012089E7F621208BB12089E7F641208BBCA
:1008500012089E7F751208BB12089E7F721208BB99
:1008600012089E7F201208BB12089E7F521208BBFE
:1008700012089E7F611208BB12089E7F681208BB97
:1008800012089E7F6D1208BB12089E7F611208BB82
:0E08900012089E7F6E1208BB12089E0208031B
:0E08AD008FA0C2B0C2B1D2B212089EC2B22257
:0E08BB008FA0D2B0C2B1D2B212089EC2B22239
:0E089E00E4FFFE0FBF00010EBE17F8BF70F59D
:0108AC002229
:00000001FF
